:020000040800F2
:1000000000500020E50C0008350D0008350D0008F3
:10001000350D0008350D0008350D00080000000002
:10002000000000000000000000000000350D000886
:10003000350D000800000000350D0008150A000805
:10004000350D0008350D0008350D0008350D000888
:10005000350D0008350D0008350D0008350D000878
:10006000350D0008350D0008350D0008350D000868
:10007000350D0008350D0008350D0008350D000858
:10008000350D0008350D0008350D0008350D000848
:10009000350D0008350D0008350D0008350D000838
:1000A000350D0008350D0008350D0008350D000828
:1000B000350D0008350D0008350D0008350D000818
:1000C000350D0008350D0008350D0008350D000808
:1000D000350D0008350D0008350D0008350D0008F8
:1000E000350D0008350D000800000000350D000832
:1000F000350D0008350D0008350D0008350D0008D8
:10010000350D0008350D0008350D0008350D0008C7
:10011000350D0008350D0008350D0008350D0008B7
:10012000350D0008350D0008350D0008350D0008A7
:1001300010B5054C237833B9044B13B10448AFF321
:1001400000800123237010BD080000200000000083
:10015000800D000808B5034B1BB103490348AFF3FA
:10016000008008BD000000000C000020800D000889
:1001700080B582B000AF0423FB7106E0FB7918461E
:1001800000F00CF8FB790133FB71FB79212BF5D9D9
:1001900000BF00BF0837BD4680BD000080B483B0FB
:1001A00000AF0346FB7100BF1E4BDB6803F0010389
:1001B000012BF9D01B4B1B69DB0903F00103012B59
:1001C00005D1184B184A5A60164B184A5A60154BFD
:1001D0001B69144A43F002031361FB799B02114A25
:1001E00003F1006353610F4B1B690E4A43F0400358
:1001F000136100BF0B4BDB6803F00103012BF9D047
:10020000084BDB68074A43F02003D360054B1B69AA
:10021000044A23F00203136100BF0C37BD4680BCC3
:10022000704700BF0020024023016745AB89EFCD36
:1002300080B487B000AFF860B9601346FB7100BFAF
:10024000254BDB6803F00103012BF9D0224B1B691E
:10025000DB0903F00103012B05D11F4B1F4A5A6034
:100260001D4B1F4A5A600023FB752BE01A4B1B697C
:10027000194A43F001031361FB7D5B00BA68134424
:100280001B88BB82FB7D5B00BA681A44FB6812883E
:100290001A80FB680233FB6000BF0F4BDB6803F082
:1002A0000103012BF9D00C4BDB680B4A43F0200310
:1002B000D360094B1B69084A23F001031361FB7DDE
:1002C0000133FB75FA7DFB799A42CFD300BF00BFA3
:1002D0001C37BD4680BC70470020024023016745A3
:1002E000AB89EFCD80B483B000AF0346FB710B4602
:1002F000BB7113467B71FB79022B7AD0022B00F382
:10030000B180002B02D0012B3AD0ABE0BB79072B98
:1003100017D85A4B1B68BA7992000F2101FA02F2E2
:10032000D2431146554A0B401360544B1B687979F0
:10033000BA79920001FA02F21146504A0B43136057
:1003400092E0BB790F2B00F28F80BB79083BBB7129
:100350004B4B1B68BA7992000F2101FA02F2D2438B
:100360001146474A0B401360454B1B687979BA79AF
:10037000920001FA02F21146414A0B43136073E006
:10038000BB79072B17D83F4B1B68BA7992000F2116
:1003900001FA02F2D24311463A4A0B401360394B3C
:1003A0001B687979BA79920001FA02F21146354A4E
:1003B0000B4313605AE0BB790F2B57D8BB79083B2E
:1003C000BB71314B1B68BA7992000F2101FA02F21E
:1003D000D24311462C4A0B4013602B4B1B68797992
:1003E000BA79920001FA02F21146274A0B431360D0
:1003F0003CE0BB79072B17D8244B1B68BA799200D5
:100400000F2101FA02F2D2431146204A0B40136039
:100410001E4B1B687979BA79920001FA02F21146F3
:100420001A4A0B43136023E0BB790F2B20D8BB790A
:10043000083BBB71164B1B68BA7992000F2101FA79
:1004400002F2D2431146124A0B401360104B1B6854
:100450007979BA79920001FA02F211460C4A0B43FB
:10046000136005E000BF04E000BF02E000BF00E051
:1004700000BF00BF0C37BD4680BC7047000801407C
:1004800004080140000C0140040C01400010014030
:100490000410014080B483B000AF0346FB710B46EB
:1004A000BB7113467B71FB79022B40D0022B60DCC1
:1004B000002B02D0012B1DD05BE07B79012B0AD1F0
:1004C0002E4B1B68BA79012101FA02F211462B4A20
:1004D0000B43136048E07B79002B45D1274B1B6809
:1004E000BA79012101FA02F2D2431146234A0B40A4
:1004F000136039E07B79012B0AD1214B1B68BA7953
:10050000012101FA02F211461D4A0B4313602DE04E
:100510007B79002B2AD11A4B1B68BA79012101FA89
:1005200002F2D2431146164A0B4013601EE07B795B
:10053000012B0AD1134B1B68BA79012101FA02F28F
:100540001146104A0B43136012E07B79002B0FD148
:100550000C4B1B68BA79012101FA02F2D243114611
:10056000084A0B40136003E000BF02E000BF00E058
:1005700000BF00BF0C37BD4680BC70470C0801406F
:100580000C0C01400C10014080B485B000AF034654
:10059000FB71FB792F2B06D9FB79392B03D8FB791B
:1005A000303BFB7302E0FB79373BFB73FB7B184668
:1005B0001437BD4680BC704780B586B000AF786008
:1005C0000023BB757B6801331B781846FFF7DCFFFF
:1005D00003467B757B6802331B781846FFF7D4FF10
:1005E00003463B7597F915301B015AB297F9143041
:1005F00013435BB2FB747B6803331B781846FFF729
:10060000C3FF0346BB747B6804331B781846FFF7AF
:10061000BBFF03467B747B6805331B781846FFF7E6
:10062000B3FF03463B747B6806331B781846FFF71D
:10063000ABFF0346FB733B4B1B681B0C1B04394A87
:100640001360FA7B374B1B681A433B7C1B011A4330
:100650007B7C1B021A43BB7C1B031343314A136090
:100660000023FB754AE0FB7D9B0009337A68134445
:100670001B781846FFF788FF0346BB74FB7D9B0081
:100680000A337A6813441B781846FFF77DFF034648
:100690007B74FB7D9B000B337A6813441B781846F0
:1006A000FFF772FF03463B74FB7D9B000C337A68B7
:1006B00013441B781846FFF767FF0346FB73FB7B69
:1006C0001BB21B021AB23B7C1BB21B031BB21343AF
:1006D0001AB27B7C1BB213431AB2BB7C1BB21B0148
:1006E0001BB213431AB2BB7D91B20F4A22F813100A
:1006F000BB7D0133BB75FB7D0133FB75FB7C5B0868
:10070000DBB2FA7D9A42AED3064B1868FB7C5B08DD
:10071000DBB21A460449FFF78BFD00BF1837BD4610
:1007200080BD00BF000000202400002080B584B000
:1007300000AF78607B6803331B781846FFF724FF0F
:100740000346FB737B6804331B781846FFF71CFFD6
:100750000346BB737B6805331B781846FFF714FF0D
:1007600003467B737B6806331B781846FFF70CFF44
:1007700003463B730C4B1B689BB20B4A13603B7BDD
:100780001A077B7B1B061A43BB7B1B051A43FB7BAB
:100790001B041A43044B1B681343034A136000BF36
:1007A0001037BD4680BD00BF0000002080B582B07C
:1007B00000AF78607B6808331B78302B02D0342B75
:1007C00004D007E07868FFF7F7FE03E07868FFF7EA
:1007D000ADFF00BF00BF0837BD4680BD80B586B005
:1007E00000AF78600B46FB700023FB7500233B7560
:1007F0000023FB740023BB740023BB7500237B75AF
:1008000000233B8201237B7523E07B7D01337A68E3
:1008100013441B781846FFF7B7FE0346FB607B7D49
:100820007A6813441B781846FFF7AEFE0346BB6098
:10083000BB681BB21B011AB2FB681BB213431BB28D
:100840003B823B8ADAB2FB7D1344FB757B7D02332E
:100850007B757A7DFB78023B9A42D6DBFB7DDB43DE
:10086000FB75FB7D0133FB75FB78013B7A68134414
:100870001B781846FFF788FE03463B75FB78023B62
:100880007A6813441B781846FFF77EFE0346FB7414
:1008900097F913301B015AB297F9143013435BB226
:1008A000BB74BA7CFB7D9A4202D10123BB7501E087
:1008B0000023BB75BB7D18461837BD4680BD0000C0
:1008C00080B400AF044B81221A60044B00221A60EE
:1008D00000BFBD4680BC70470010024004100240BB
:1008E00080B483B000AF03460A46FB711346BB7168
:1008F000BB791F2B2AD8FB79022B1CD0022B25DCBD
:10090000002B02D0012B0BD020E0134B1B68BA79CF
:10091000012101FA02F211460F4A0B43136015E060
:100920000E4B1B68BA79012101FA02F211460B4AFB
:100930000B4313600AE00A4B1B68BA79012101FAE4
:1009400002F21146064A0B43136000BF00BF0C378A
:10095000BD4680BC704700BF141002401C1002400E
:100960001810024080B400AF034B00221A6000BF91
:10097000BD4680BC704700BF10E000E080B483B08B
:1009800000AF78603960134B1B68124A23F00103F3
:100990001360104B00225A600E4B00229A600D4AE1
:1009A0007B6853600B4B1B680A4A43F001031360DA
:1009B000094A3B681360094B00221A70054B1B68FB
:1009C000044A43F00203136000BF0C37BD4680BCED
:1009D000704700BF10E000E0EC000020F0000020B5
:1009E00080B400AF0A4B1B68094A23F0020313606E
:1009F000074B1B68064A43F001031360044B0022B7
:100A00005A60034B00229A6000BFBD4680BC70470D
:100A100010E000E080B582B000AF124B1B78002BD5
:100A200011D1114B1B68104A23F0020313600E4BC7
:100A30001B680D4A43F0010313600B4B00225A6000
:100A4000094B00229A60094B1B689847064B1B68AC
:100A50001B0CDBB203F00103FB7100BF0837BD467E
:100A600080BD00BFF000002010E000E0EC0000209E
:100A700080B400AF0E4B40F241329A600C4BDB6801
:100A80000B4A43F00803D360094BDB68084A43F084
:100A90000403D360064BDB68054A43F40053D3607C
:100AA000034B00221A6000BFBD4680BC704700BFE8
:100AB0000038014080B485B000AF78600023FB733C
:100AC00010E0FB7B7A6813441A780C4B5A6000BF25
:100AD0000A4B1B689B0903F00103002BF8D0FB7B3A
:100AE0000133FB73FB7B7A6813441B78002BE8D13E
:100AF00000BF00BF1437BD4680BC704700380140BE
:100B000080B485B000AF78600123FB730A4B1B688B
:100B10005B0903F00103012B05D1074B5B68DAB2D7
:100B20007B681A7001E00023FB73FB7B18461437C7
:100B3000BD4680BC704700BF0038014080B500AFA3
:100B4000054B064A1A60064B1B68064A1360054BA4
:100B50001B68984700BF80BD08ED00E0001000084A
:100B6000041000085C01002080B500AF054B064A68
:100B70001A60064B1B68064A1360054B1B689847B2
:100B800000BF80BD08ED00E0008800080488000870
:100B90005C01002080B582B000AF0023FB71FFF73D
:100BA0008FFE0E210220FFF79BFE02210220FFF79D
:100BB00097FE04210020FFF793FE0A22092100205E
:100BC000FFF790FB04220A210020FFF78BFB022293
:100BD00001210020FFF786FB012201210020FFF701
:100BE00059FCFFF745FFFFF7BDFE35493548FFF7D4
:100BF000C5FE5AE0344B1B78DBB21A46334B134424
:100C00001846FFF77DFF0346BB71BB79012B4CD122
:100C1000FFF7E6FE2C4B1B78DBB21A462B4B9B5C96
:100C2000DBB20A2B2BD1284B1B78DBB2013BDBB2AA
:100C300019462648FFF7D2FD03467B717B79012BCD
:100C400015D10123FB71224B1B78DBB2012B04D1A0
:100C5000FFF78EFA1E4B00221A701C48FFF7A6FD04
:100C60001C48FFF727FF184B00221A700EE00022E5
:100C700001210020FFF70EFC0223FB7106E0124B5E
:100C80001B78DBB20133DAB20F4B1A70FB79012B00
:100C900004D10B491048FFF771FE06E0FB79022BE7
:100CA00003D10E496420FFF769FE0D4B1B78DBB2C0
:100CB000002B9FD000BF00BF0837BD4680BD00BFDE
:100CC0003D0B0008C0E1E40058010020F4000020C2
:100CD00004000020980D000880969800690B000819
:100CE000590100200D488546AFF300800C480D499E
:100CF0000D4A002302E0D458C4500433C4188C4277
:100D0000F9D30A4A0A4C002301E013600432A242DC
:100D1000FBD300F011F8FFF73DFFFEE70050002085
:100D20000000002008000020A40D0008080000209A
:100D300060010020FEE7000070B500260C4D0D4C50
:100D4000641BA410A64209D100F01AF800260A4D2F
:100D50000A4C641BA410A64205D170BD55F8043B93
:100D600098470136EEE755F8043B98470136F2E71D
:100D70009C0D00089C0D00089C0D0008A00D0008AB
:100D8000F8B500BFF8BC08BC9E467047F8B500BF78
:080D9000F8BC08BC9E46704748
:040D98006F000000E8
:040D9C0055010008F5
:040DA0003101000815
:080DA40000000008010000003E
:0400000508000CE5FE
:00000001FF
