:020000040800F2
:1000000000500020A90D0008F90D0008F90D0008A6
:10001000F90D0008F90D0008F90D000800000000B6
:10002000000000000000000000000000F90D0008C2
:10003000F90D000800000000F90D0008890A000809
:10004000F90D0008F90D0008F90D0008F90D000878
:10005000F90D0008F90D0008F90D0008F90D000868
:10006000F90D0008F90D0008F90D0008F90D000858
:10007000F90D0008F90D0008F90D0008F90D000848
:10008000F90D0008F90D0008F90D0008F90D000838
:10009000F90D0008F90D0008F90D0008F90D000828
:1000A000F90D0008F90D0008F90D0008F90D000818
:1000B000F90D0008F90D0008F90D0008F90D000808
:1000C000F90D0008F90D0008F90D0008F90D0008F8
:1000D000F90D0008F90D0008F90D0008F90D0008E8
:1000E000F90D0008F90D000800000000F90D0008E6
:1000F000F90D0008F90D0008F90D0008F90D0008C8
:10010000F90D0008F90D0008F90D0008F90D0008B7
:10011000F90D0008F90D0008F90D0008F90D0008A7
:10012000F90D0008F90D0008F90D0008F90D000897
:1001300010B5054C237833B9044B13B10448AFF321
:1001400000800123237010BD00000020000000008B
:10015000440E000808B5034B1BB103490348AFF335
:10016000008008BD0000000004000020440E0008CC
:1001700090B484B000AF0446084611461A462346A0
:10018000FB710346BB710B467B7113463B71002329
:10019000FB730023BB73BB79072B06D8BB799B008D
:1001A000FB73FB7B0233BB730DE0BB79072B0AD9D2
:1001B000BB790F2B07D8BB79083BDBB29B00FB73E5
:1001C000FB7B0233BB73FB79022B00F03B81022BDC
:1001D00000F38881002B03D0012B00F0988081E18F
:1001E000BB79072B45D8954B1B68FA7B0F2101FA89
:1001F00002F2D2431146914A0B4013608F4B1B68A9
:100200007979FA7B01FA02F211468C4A0B431360AA
:100210008A4B1B683979BA7B01FA02F21146874A88
:100220000B4313603B79022B14D1844B1B68397943
:10023000BA7B01FA02F21146804A0B4313607F4BEE
:10024000DB68BA79012101FA02F211467B4A0B43BD
:10025000D36042E13B79032B40F03F81774B1B6831
:10026000BA7B022101FA02F21146744A0B43136071
:1002700033E1BB79072B40F23081BB790F2B00F2C1
:100280002C816E4B5B68FA7B0F2101FA02F2D2439C
:1002900011466A4A0B405360684B5B687979FA7B78
:1002A00001FA02F21146654A0B435360634B5B68E7
:1002B0003979BA7B01FA02F21146604A0B43536066
:1002C0003B79022B14D15D4B5B683979BA7B01FA1B
:1002D00002F21146594A0B435360584BDB68BA7916
:1002E000012101FA02F21146544A0B43D360F4E0B3
:1002F0003B79032B40F0F180504B5B68BA7B0221C5
:1003000001FA02F211464D4A0B435360E5E0BB7916
:10031000072B45D84A4B1B68FA7B0F2101FA02F2E2
:10032000D2431146464A0B401360454B1B6879790E
:10033000FA7B01FA02F21146414A0B431360404B2B
:100340001B683979BA7B01FA02F211463C4A0B4329
:1003500013603B79022B14D1394B1B683979BA7B76
:1003600001FA02F21146364A0B431360344BDB6844
:10037000BA79012101FA02F21146314A0B43D360E6
:10038000ADE03B79032B40F0AA802D4B1B68BA7B74
:10039000022101FA02F21146294A0B4313609EE042
:1003A000BB79072B40F29B80BB790F2B00F2978023
:1003B000234B5B68FA7B0F2101FA02F2D24311460C
:1003C0001F4A0B4053601E4B5B687979FA7B01FA38
:1003D00002F211461A4A0B435360194B5B68397994
:1003E000BA7B01FA02F21146154A0B4353603B797E
:1003F000022B14D1124B5B683979BA7B01FA02F2F5
:1004000011460F4A0B4353600D4BDB68BA7901214B
:1004100001FA02F211460A4A0B43D3605FE03B79CE
:10042000032B5CD1064B5B68BA7B022101FA02F216
:100430001146034A0B43536051E000BF00080140DE
:10044000000C0140BB790C2B4BD9BB790F2B48D842
:10045000274B5B68FA7B0F2101FA02F2D243114667
:10046000234A0B405360224B5B687979FA7B01FA8F
:1004700002F211461E4A0B4353601D4B5B683979EB
:10048000BA7B01FA02F21146194A0B4353603B79D9
:10049000022B14D1164B5B683979BA7B01FA02F250
:1004A0001146134A0B435360114BDB68BA790121A3
:1004B00001FA02F211460E4A0B43D36011E03B7978
:1004C000032B0ED10A4B5B68BA7B022101FA02F2C0
:1004D0001146074A0B43536003E000BF02E000BF30
:1004E00000E000BF00BF1037BD4690BC704700BFA2
:1004F0000010014080B485B000AF0346FB710B468D
:10050000BB7113467B710123FB73FB79022B4CD02B
:10051000022B70DC002B02D0012B23D06BE07B7907
:10052000002B0ED0012B19D1384B1B69BA79012150
:1005300001FA02F21146354A0B4313610023FB73A3
:100540000FE0324B5B69BA79012101FA02F21146E0
:100550002E4A0B4353610023FB7302E00223FB731B
:100560004DE04CE07B79002B0ED0012B19D1284BAC
:100570001B69BA79012101FA02F21146244A0B43A0
:1005800013610023FB730FE0214B5B69BA790121F2
:1005900001FA02F211461E4A0B4353610023FB731A
:1005A00002E00223FB732AE029E0BB790C2B25D95A
:1005B0007B79002B0ED0012B19D1164B1B69BA7910
:1005C000012101FA02F21146124A0B431361002382
:1005D000FB730FE00F4B5B69BA79012101FA02F25C
:1005E00011460C4A0B4353610023FB7302E00223C4
:1005F000FB7303E002E00223FB7300E000BFFB7B20
:1006000018461437BD4680BC704700BF0008014043
:10061000000C01400010014080B485B000AF0346DB
:100620003A60FB710B46BB710023FB73FB79022B15
:100630001ED0022B2EDC002B02D0012B0CD029E087
:10064000194B9A68BB7922FA03F3DBB203F001037A
:10065000DAB23B681A7021E0144B9A68BB7922FA2F
:1006600003F3DBB203F00103DAB23B681A7015E062
:10067000BB790C2B11D9BB790F2B0ED80C4B9A6878
:10068000BB7922FA03F3DBB203F00103DAB23B6871
:100690001A7002E00223FB7300E000BFFB7B1846E8
:1006A0001437BD4680BC704700080140000C014073
:1006B0000010014080B582B000AF0023FB71012122
:1006C000002000F073F8012000F01AF80346FB71D7
:1006D000FB79002B0FD0002000F046F8002101200C
:1006E00000F064F80021022000F060F800220021F0
:1006F000002000F0C5F800BF0837BD4680BD0000EF
:1007000080B485B000AF0346FB710123FB73002367
:10071000BB60FB79012B12D0FB79112B0FD0FB7939
:10072000192B16D10BE0BB680133BB60BB684CF2E0
:100730005032934203D10023FB7300BF0BE0094BFF
:100740001A68FB7922FA03F303F00103002BEAD0C5
:1007500001E00023FB73FB7B18461437BD4680BCC9
:10076000704700BF0010024080B483B000AF034662
:10077000FB71FB79012B05D0FB79002B02D0FB79B3
:10078000022B0BD1084B5B68074A23F0030353602D
:10079000054B5A68FB79044913434B6000BF0C3783
:1007A000BD4680BC704700BF0010024080B483B0DB
:1007B00000AF03460A46FB711346BB71FB79012B60
:1007C00005D0FB79002B02D0FB79022B50D1BB79ED
:1007D000012B02D0BB79002B4AD1FB79022B2ED002
:1007E000022B45DC002B02D0012B14D040E0BB795A
:1007F000002B08D0012B36D1204B1B681F4A43F039
:100800000103136006E01D4B1B681C4A23F0010323
:10081000136000BF27E0BB79002B09D0012B24D146
:10082000164B1B68154A43F48033136000BF1CE06D
:10083000124B1B68114A23F48033136015E0BB7917
:10084000002B09D0012B12D10C4B1B680B4A43F033
:100850008073136000BF0AE0084B1B68074A23F04F
:100860008073136003E000BF02E000BF00E000BF40
:1008700000BF0C37BD4680BC704700BF001002406F
:1008800080B483B000AF0346FB710B46BB711346C7
:100890007B71FB790F2B1BD8BB79072B18D87B7981
:1008A000072B15D80D4B5B680C4A23F47F5323F0BC
:1008B00030035360094B5B68FA7911017A791202AF
:1008C0001143BA79D2020A431146044A0B435360DA
:1008D00000BF0C37BD4680BC704700BF001002400F
:1008E00080B483B000AF0346FB710B46BB71134667
:1008F0007B71FB79022B40D0022B60DC002B02D0F5
:10090000012B1DD05BE07B79002B0CD0012B51D14A
:100910002D4B5B69BA79012101FA02F211462A4A8C
:100920000B4353610BE0284B5B69BA79012101FA53
:1009300002F2D2431146244A0B40536100BF39E012
:100940007B79002B0CD0012B36D11F4BDB69BA7998
:10095000012101FA02F211461B4A0B43D3610BE05D
:10096000194BDB69BA79012101FA02F2D24311462F
:10097000154A0B40D36100BF1EE07B79002B0CD0E1
:10098000012B1BD1104B9B69BA79012101FA02F2AC
:1009900011460D4A0B4393610BE00B4B9B69BA79EF
:1009A000012101FA02F2D2431146074A0B4093613A
:1009B00000BF03E000BF02E000BF00E000BF00BFD7
:1009C0000C37BD4680BC70470010024080B400AFB9
:1009D000044BDB6803F4E0620249034B1343CB6032
:1009E00000BFFDE700ED00E00400FA0580B483B02D
:1009F00000AF0123FB710D4B1B680C4A43F002034F
:100A000013600A4B1B68094A43F001031360074B4C
:100A10001B68064A23F0040313600023FB71FB7973
:100A200018460C37BD4680BC704700BF10E000E0A0
:100A300080B483B000AF7860124A7B685360114B7A
:100A400000229A600F4B1B680E4A43F001031360AB
:100A500000BF0C4B1B681B0C03F00103002BF8D0EC
:100A6000084B1B68074A23F001031360054B002263
:100A70005A60044B00229A6000BF0C37BD4680BC10
:100A8000704700BF10E000E080B582B000AF124BAD
:100A90001B78002B11D1114B1B68104A23F0010366
:100AA00013600E4B1B680D4A23F0020313600B4BBF
:100AB00000229A60094B00225A60094B1B68984734
:100AC000064B1B681B0CDBB203F00103FB7100BF7C
:100AD0000837BD4680BD00BF2000002010E000E0C8
:100AE0001C00002080B483B000AF34237B608023DF
:100AF0003B601C4BDB681B4A23F48053D360194BCB
:100B0000DB68184A23F48063D360164B1B69154ACF
:100B100023F480531361134B1B69124A23F40053CF
:100B20001361104BDB680F4A43F00803D3600D4B91
:100B3000DB680C4A43F00403D3607B681A013B680E
:100B40000949A1FB03135B09064913438B60054B5D
:100B5000DB68044A43F40053D36000BF0C37BD4642
:100B600080BC7047003801401F85EB5180B483B0D2
:100B700000AF0346FB710B4AFB79536000BF094B82
:100B80001B689B0903F00103012BF8D1054B1B687F
:100B9000044A23F04003136000BF0C37BD4680BCFD
:100BA000704700BF0038014080B485B000AF786066
:100BB0000023FB737B681B78FB7316E07B681B7854
:100BC000FB730F4AFB7B536000BF0D4B1B689B09F7
:100BD00003F00103012BF8D1094B1B68084A23F0ED
:100BE000400313607B6801337B607B681B78002BBC
:100BF000E4D100BF00BF1437BD4680BC704700BFC2
:100C00000038014080B485B000AF78600123FB73E9
:100C10000A4B1B685B0903F00103012B05D1074B4D
:100C20005B68DAB27B681A7001E00023FB73FB7B20
:100C300018461437BD4680BC704700BF00380140DD
:100C400080B586B000AF78603960FFF733FD0122D0
:100C500002210220FFF744FE01220E210220FFF7AD
:100C60003FFE012300220A210020FFF781FA022320
:100C7000012209210020FFF77BFA02230022002134
:100C80000020FFF775FA0023012201210020FFF761
:100C90006FFA0023022202210020FFF769FA0023E5
:100CA000022204210020FFF763FA00220121002024
:100CB000FFF720FC002202210020FFF71BFC01228D
:100CC00004210020FFF716FCFFF70CFFFFF78EFE54
:100CD0000023BB7500237B7500233B7507F10803D8
:100CE00000221A605A601A810023FB7507F116036F
:100CF0001A4600210020FFF78FFC3B7DDBB21A462D
:100D000007F1080313441846FFF77CFF0346FB7501
:100D1000FB7D012B04D13B7DDBB20133DBB23B75A4
:100D20003B7A4E2B1AD17B7A452B17D1BB7A572BA6
:100D300014D13B7DDBB2032B10D84FF46170FFF769
:100D400077FE1848FFF730FF6420FFF771FEBB7D88
:100D5000DBB23033DBB21846FFF708FFFB7A312BEA
:100D600001D101237B75FB7A422B09D100233B750E
:100D700030233B7230237B723023BB723023FB72F3
:100D80003B7DDBB2082B01D900233B75BB7DDBB279
:100D9000002BABD17B7DDBB2012BA7D1FFF716FE79
:100DA000A4E700BF5C0E00080D488546AFF3008045
:100DB0000C480D490D4A002302E0D458C4500433B6
:100DC000C4188C42F9D30A4A0A4C002301E013608C
:100DD0000432A242FBD300F011F8FFF731FFFEE727
:100DE000005000200000002000000020700E0008CD
:100DF0000000002024000020FEE7000070B500265F
:100E00000C4D0D4C641BA410A64209D100F01AF839
:100E100000260A4D0A4C641BA410A64205D170BDE1
:100E200055F8043B98470136EEE755F8043B9847E0
:100E30000136F2E7680E0008680E0008680E000828
:100E40006C0E0008F8B500BFF8BC08BC9E467047A1
:0C0E5000F8B500BFF8BC08BC9E46704717
:0C0E5C0053776974636820310A000000BD
:040E68005501000828
:040E6C003101000848
:0400000508000DA939
:00000001FF
